{
  "_format": "hh-sol-artifact-1",
  "contractName": "SampleFilterNFT",
  "sourceName": "contracts/SampleFilterNFT.sol",
  "abi": [
    {
      "inputs": [],
      "stateMutability": "nonpayable",
      "type": "constructor"
    },
    {
      "inputs": [
        {
          "internalType": "address",
          "name": "operator",
          "type": "address"
        }
      ],
      "name": "OperatorNotAllowed",
      "type": "error"
    },
    {
      "anonymous": false,
      "inputs": [
        {
          "indexed": true,
          "internalType": "address",
          "name": "owner",
          "type": "address"
        },
        {
          "indexed": true,
          "internalType": "address",
          "name": "approved",
          "type": "address"
        },
        {
          "indexed": true,
          "internalType": "uint256",
          "name": "tokenId",
          "type": "uint256"
        }
      ],
      "name": "Approval",
      "type": "event"
    },
    {
      "anonymous": false,
      "inputs": [
        {
          "indexed": true,
          "internalType": "address",
          "name": "owner",
          "type": "address"
        },
        {
          "indexed": true,
          "internalType": "address",
          "name": "operator",
          "type": "address"
        },
        {
          "indexed": false,
          "internalType": "bool",
          "name": "approved",
          "type": "bool"
        }
      ],
      "name": "ApprovalForAll",
      "type": "event"
    },
    {
      "anonymous": false,
      "inputs": [
        {
          "indexed": true,
          "internalType": "address",
          "name": "previousOwner",
          "type": "address"
        },
        {
          "indexed": true,
          "internalType": "address",
          "name": "newOwner",
          "type": "address"
        }
      ],
      "name": "OwnershipTransferred",
      "type": "event"
    },
    {
      "anonymous": false,
      "inputs": [
        {
          "indexed": true,
          "internalType": "address",
          "name": "from",
          "type": "address"
        },
        {
          "indexed": true,
          "internalType": "address",
          "name": "to",
          "type": "address"
        },
        {
          "indexed": true,
          "internalType": "uint256",
          "name": "tokenId",
          "type": "uint256"
        }
      ],
      "name": "Transfer",
      "type": "event"
    },
    {
      "inputs": [],
      "name": "MAX_SUPPLY",
      "outputs": [
        {
          "internalType": "uint256",
          "name": "",
          "type": "uint256"
        }
      ],
      "stateMutability": "view",
      "type": "function"
    },
    {
      "inputs": [],
      "name": "OPERATOR_FILTER_REGISTRY",
      "outputs": [
        {
          "internalType": "contract IOperatorFilterRegistry",
          "name": "",
          "type": "address"
        }
      ],
      "stateMutability": "view",
      "type": "function"
    },
    {
      "inputs": [
        {
          "internalType": "address",
          "name": "operator",
          "type": "address"
        },
        {
          "internalType": "uint256",
          "name": "tokenId",
          "type": "uint256"
        }
      ],
      "name": "approve",
      "outputs": [],
      "stateMutability": "nonpayable",
      "type": "function"
    },
    {
      "inputs": [
        {
          "internalType": "address",
          "name": "owner",
          "type": "address"
        }
      ],
      "name": "balanceOf",
      "outputs": [
        {
          "internalType": "uint256",
          "name": "",
          "type": "uint256"
        }
      ],
      "stateMutability": "view",
      "type": "function"
    },
    {
      "inputs": [
        {
          "internalType": "uint256",
          "name": "tokenId",
          "type": "uint256"
        }
      ],
      "name": "getApproved",
      "outputs": [
        {
          "internalType": "address",
          "name": "",
          "type": "address"
        }
      ],
      "stateMutability": "view",
      "type": "function"
    },
    {
      "inputs": [
        {
          "internalType": "address",
          "name": "owner",
          "type": "address"
        },
        {
          "internalType": "address",
          "name": "operator",
          "type": "address"
        }
      ],
      "name": "isApprovedForAll",
      "outputs": [
        {
          "internalType": "bool",
          "name": "",
          "type": "bool"
        }
      ],
      "stateMutability": "view",
      "type": "function"
    },
    {
      "inputs": [],
      "name": "merkleRoot",
      "outputs": [
        {
          "internalType": "bytes32",
          "name": "",
          "type": "bytes32"
        }
      ],
      "stateMutability": "view",
      "type": "function"
    },
    {
      "inputs": [
        {
          "internalType": "address",
          "name": "to",
          "type": "address"
        },
        {
          "internalType": "uint256",
          "name": "quantity",
          "type": "uint256"
        }
      ],
      "name": "mint",
      "outputs": [],
      "stateMutability": "nonpayable",
      "type": "function"
    },
    {
      "inputs": [],
      "name": "name",
      "outputs": [
        {
          "internalType": "string",
          "name": "",
          "type": "string"
        }
      ],
      "stateMutability": "view",
      "type": "function"
    },
    {
      "inputs": [],
      "name": "owner",
      "outputs": [
        {
          "internalType": "address",
          "name": "",
          "type": "address"
        }
      ],
      "stateMutability": "view",
      "type": "function"
    },
    {
      "inputs": [
        {
          "internalType": "uint256",
          "name": "tokenId",
          "type": "uint256"
        }
      ],
      "name": "ownerOf",
      "outputs": [
        {
          "internalType": "address",
          "name": "",
          "type": "address"
        }
      ],
      "stateMutability": "view",
      "type": "function"
    },
    {
      "inputs": [],
      "name": "price",
      "outputs": [
        {
          "internalType": "uint256",
          "name": "",
          "type": "uint256"
        }
      ],
      "stateMutability": "view",
      "type": "function"
    },
    {
      "inputs": [],
      "name": "renounceOwnership",
      "outputs": [],
      "stateMutability": "nonpayable",
      "type": "function"
    },
    {
      "inputs": [
        {
          "internalType": "uint256",
          "name": "_tokenId",
          "type": "uint256"
        },
        {
          "internalType": "uint256",
          "name": "_salePrice",
          "type": "uint256"
        }
      ],
      "name": "royaltyInfo",
      "outputs": [
        {
          "internalType": "address",
          "name": "",
          "type": "address"
        },
        {
          "internalType": "uint256",
          "name": "",
          "type": "uint256"
        }
      ],
      "stateMutability": "view",
      "type": "function"
    },
    {
      "inputs": [
        {
          "internalType": "address",
          "name": "from",
          "type": "address"
        },
        {
          "internalType": "address",
          "name": "to",
          "type": "address"
        },
        {
          "internalType": "uint256",
          "name": "tokenId",
          "type": "uint256"
        }
      ],
      "name": "safeTransferFrom",
      "outputs": [],
      "stateMutability": "nonpayable",
      "type": "function"
    },
    {
      "inputs": [
        {
          "internalType": "address",
          "name": "from",
          "type": "address"
        },
        {
          "internalType": "address",
          "name": "to",
          "type": "address"
        },
        {
          "internalType": "uint256",
          "name": "tokenId",
          "type": "uint256"
        },
        {
          "internalType": "bytes",
          "name": "data",
          "type": "bytes"
        }
      ],
      "name": "safeTransferFrom",
      "outputs": [],
      "stateMutability": "nonpayable",
      "type": "function"
    },
    {
      "inputs": [
        {
          "internalType": "address",
          "name": "operator",
          "type": "address"
        },
        {
          "internalType": "bool",
          "name": "approved",
          "type": "bool"
        }
      ],
      "name": "setApprovalForAll",
      "outputs": [],
      "stateMutability": "nonpayable",
      "type": "function"
    },
    {
      "inputs": [
        {
          "internalType": "address",
          "name": "receiver",
          "type": "address"
        },
        {
          "internalType": "uint96",
          "name": "feeNumerator",
          "type": "uint96"
        }
      ],
      "name": "setDefaultRoyalty",
      "outputs": [],
      "stateMutability": "nonpayable",
      "type": "function"
    },
    {
      "inputs": [
        {
          "internalType": "bytes4",
          "name": "interfaceId",
          "type": "bytes4"
        }
      ],
      "name": "supportsInterface",
      "outputs": [
        {
          "internalType": "bool",
          "name": "",
          "type": "bool"
        }
      ],
      "stateMutability": "view",
      "type": "function"
    },
    {
      "inputs": [],
      "name": "symbol",
      "outputs": [
        {
          "internalType": "string",
          "name": "",
          "type": "string"
        }
      ],
      "stateMutability": "view",
      "type": "function"
    },
    {
      "inputs": [
        {
          "internalType": "uint256",
          "name": "tokenId",
          "type": "uint256"
        }
      ],
      "name": "tokenURI",
      "outputs": [
        {
          "internalType": "string",
          "name": "",
          "type": "string"
        }
      ],
      "stateMutability": "view",
      "type": "function"
    },
    {
      "inputs": [
        {
          "internalType": "address",
          "name": "",
          "type": "address"
        }
      ],
      "name": "tokensMinted",
      "outputs": [
        {
          "internalType": "uint256",
          "name": "",
          "type": "uint256"
        }
      ],
      "stateMutability": "view",
      "type": "function"
    },
    {
      "inputs": [
        {
          "internalType": "address",
          "name": "from",
          "type": "address"
        },
        {
          "internalType": "address",
          "name": "to",
          "type": "address"
        },
        {
          "internalType": "uint256",
          "name": "tokenId",
          "type": "uint256"
        }
      ],
      "name": "transferFrom",
      "outputs": [],
      "stateMutability": "nonpayable",
      "type": "function"
    },
    {
      "inputs": [
        {
          "internalType": "address",
          "name": "newOwner",
          "type": "address"
        }
      ],
      "name": "transferOwnership",
      "outputs": [],
      "stateMutability": "nonpayable",
      "type": "function"
    }
  ],
  "bytecode": "0x608060405266038d7ea4c68000600a553480156200001c57600080fd5b50733cc6cdda760b79bafa08df41ecfa224f810dceb6600160405180604001604052806006815260200165546573744d4d60d01b8152506040518060400160405280600381526020016254544d60e81b81525062000089620000836200021060201b60201c565b62000214565b60016200009783826200040e565b506002620000a682826200040e565b5050506daaeb6d7670e522a718067333cd4e3b15620001ee5780156200013c57604051633e9f1edf60e11b81523060048201526001600160a01b03831660248201526daaeb6d7670e522a718067333cd4e90637d3e3dbe906044015b600060405180830381600087803b1580156200011d57600080fd5b505af115801562000132573d6000803e3d6000fd5b50505050620001ee565b6001600160a01b038216156200018d5760405163a0af290360e01b81523060048201526001600160a01b03831660248201526daaeb6d7670e522a718067333cd4e9063a0af29039060440162000102565b604051632210724360e11b81523060048201526daaeb6d7670e522a718067333cd4e90634420e48690602401600060405180830381600087803b158015620001d457600080fd5b505af1158015620001e9573d6000803e3d6000fd5b505050505b50506000546200020a906001600160a01b03166101f462000264565b620004da565b3390565b600080546001600160a01b038381166001600160a01b0319831681178455604051919092169283917f8be0079c531659141344cd1fd0a4f28419497f9722a3daafe3b4186f6b6457e09190a35050565b6127106001600160601b0382161115620002d85760405162461bcd60e51b815260206004820152602a60248201527f455243323938313a20726f79616c7479206665652077696c6c206578636565646044820152692073616c65507269636560b01b60648201526084015b60405180910390fd5b6001600160a01b038216620003305760405162461bcd60e51b815260206004820152601960248201527f455243323938313a20696e76616c6964207265636569766572000000000000006044820152606401620002cf565b604080518082019091526001600160a01b039092168083526001600160601b039091166020909201829052600160a01b90910217600755565b634e487b7160e01b600052604160045260246000fd5b600181811c908216806200039457607f821691505b602082108103620003b557634e487b7160e01b600052602260045260246000fd5b50919050565b601f8211156200040957600081815260208120601f850160051c81016020861015620003e45750805b601f850160051c820191505b818110156200040557828155600101620003f0565b5050505b505050565b81516001600160401b038111156200042a576200042a62000369565b62000442816200043b84546200037f565b84620003bb565b602080601f8311600181146200047a5760008415620004615750858301515b600019600386901b1c1916600185901b17855562000405565b600085815260208120601f198616915b82811015620004ab578886015182559484019460019091019084016200048a565b5085821015620004ca5787850151600019600388901b60f8161c191681555b5050505050600190811b01905550565b611ccc80620004ea6000396000f3fe608060405234801561001057600080fd5b50600436106101985760003560e01c806354610481116100e3578063a035b1fe1161008c578063c87b56dd11610066578063c87b56dd14610362578063e985e9c514610375578063f2fde38b146103b157600080fd5b8063a035b1fe14610333578063a22cb4651461033c578063b88d4fde1461034f57600080fd5b8063715018a6116100bd578063715018a6146103125780638da5cb5b1461031a57806395d89b411461032b57600080fd5b806354610481146102cc5780636352211e146102ec57806370a08231146102ff57600080fd5b80632a55205a1161014557806340c10f191161011f57806340c10f191461029157806341f43434146102a457806342842e0e146102b957600080fd5b80632a55205a146102405780632eb4a7ab1461027257806332cb6b0c1461028957600080fd5b8063081812fc11610176578063081812fc146101ef578063095ea7b31461021a57806323b872dd1461022d57600080fd5b806301ffc9a71461019d57806304634d8d146101c557806306fdde03146101da575b600080fd5b6101b06101ab366004611879565b6103c4565b60405190151581526020015b60405180910390f35b6101d86101d33660046118b2565b6103e4565b005b6101e26103fa565b6040516101bc919061194a565b6102026101fd36600461195d565b61048c565b6040516001600160a01b0390911681526020016101bc565b6101d8610228366004611976565b6104b3565b6101d861023b3660046119a0565b6104cc565b61025361024e3660046119dc565b6104f7565b604080516001600160a01b0390931683526020830191909152016101bc565b61027b600b5481565b6040519081526020016101bc565b61027b606481565b6101d861029f366004611976565b6105b2565b6102026daaeb6d7670e522a718067333cd4e81565b6101d86102c73660046119a0565b6105ef565b61027b6102da3660046119fe565b600c6020526000908152604090205481565b6102026102fa36600461195d565b610614565b61027b61030d3660046119fe565b61067e565b6101d8610718565b6000546001600160a01b0316610202565b6101e261072c565b61027b600a5481565b6101d861034a366004611a27565b61073b565b6101d861035d366004611a69565b61074f565b6101e261037036600461195d565b61077c565b6101b0610383366004611b45565b6001600160a01b03918216600090815260066020908152604080832093909416825291909152205460ff1690565b6101d86103bf3660046119fe565b6107f0565b60006103cf82610880565b806103de57506103de8261091b565b92915050565b6103ec610959565b6103f682826109b3565b5050565b60606001805461040990611b78565b80601f016020809104026020016040519081016040528092919081815260200182805461043590611b78565b80156104825780601f1061045757610100808354040283529160200191610482565b820191906000526020600020905b81548152906001019060200180831161046557829003601f168201915b5050505050905090565b600061049782610acd565b506000908152600560205260409020546001600160a01b031690565b816104bd81610b31565b6104c78383610c1c565b505050565b826001600160a01b03811633146104e6576104e633610b31565b6104f1848484610d66565b50505050565b60008281526008602090815260408083208151808301909252546001600160a01b038116808352600160a01b9091046bffffffffffffffffffffffff169282019290925282916105765750604080518082019091526007546001600160a01b0381168252600160a01b90046bffffffffffffffffffffffff1660208201525b60208101516000906127109061059a906bffffffffffffffffffffffff1687611bc8565b6105a49190611bdf565b915196919550909350505050565b60005b818110156104c7576105cf836105ca60095490565b610ded565b6105dd600980546001019055565b806105e781611c01565b9150506105b5565b826001600160a01b03811633146106095761060933610b31565b6104f1848484610e07565b6000818152600360205260408120546001600160a01b0316806103de5760405162461bcd60e51b815260206004820152601860248201527f4552433732313a20696e76616c696420746f6b656e204944000000000000000060448201526064015b60405180910390fd5b60006001600160a01b0382166106fc5760405162461bcd60e51b815260206004820152602960248201527f4552433732313a2061646472657373207a65726f206973206e6f74206120766160448201527f6c6964206f776e657200000000000000000000000000000000000000000000006064820152608401610675565b506001600160a01b031660009081526004602052604090205490565b610720610959565b61072a6000610e22565b565b60606002805461040990611b78565b8161074581610b31565b6104c78383610e7f565b836001600160a01b03811633146107695761076933610b31565b61077585858585610e8a565b5050505050565b606061078782610acd565b600061079e60408051602081019091526000815290565b905060008151116107be57604051806020016040528060008152506107e9565b806107c884610f12565b6040516020016107d9929190611c1a565b6040516020818303038152906040525b9392505050565b6107f8610959565b6001600160a01b0381166108745760405162461bcd60e51b815260206004820152602660248201527f4f776e61626c653a206e6577206f776e657220697320746865207a65726f206160448201527f64647265737300000000000000000000000000000000000000000000000000006064820152608401610675565b61087d81610e22565b50565b60006001600160e01b031982167f80ac58cd0000000000000000000000000000000000000000000000000000000014806108e357506001600160e01b031982167f5b5e139f00000000000000000000000000000000000000000000000000000000145b806103de57507f01ffc9a7000000000000000000000000000000000000000000000000000000006001600160e01b03198316146103de565b60006001600160e01b031982167f2a55205a0000000000000000000000000000000000000000000000000000000014806103de57506103de82610880565b6000546001600160a01b0316331461072a5760405162461bcd60e51b815260206004820181905260248201527f4f776e61626c653a2063616c6c6572206973206e6f7420746865206f776e65726044820152606401610675565b6127106bffffffffffffffffffffffff82161115610a395760405162461bcd60e51b815260206004820152602a60248201527f455243323938313a20726f79616c7479206665652077696c6c2065786365656460448201527f2073616c655072696365000000000000000000000000000000000000000000006064820152608401610675565b6001600160a01b038216610a8f5760405162461bcd60e51b815260206004820152601960248201527f455243323938313a20696e76616c6964207265636569766572000000000000006044820152606401610675565b604080518082019091526001600160a01b039092168083526bffffffffffffffffffffffff9091166020909201829052600160a01b90910217600755565b6000818152600360205260409020546001600160a01b031661087d5760405162461bcd60e51b815260206004820152601860248201527f4552433732313a20696e76616c696420746f6b656e20494400000000000000006044820152606401610675565b6daaeb6d7670e522a718067333cd4e3b1561087d576040517fc61711340000000000000000000000000000000000000000000000000000000081523060048201526001600160a01b03821660248201526daaeb6d7670e522a718067333cd4e9063c617113490604401602060405180830381865afa158015610bb7573d6000803e3d6000fd5b505050506040513d601f19601f82011682018060405250810190610bdb9190611c49565b61087d576040517fede71dcc0000000000000000000000000000000000000000000000000000000081526001600160a01b0382166004820152602401610675565b6000610c2782610614565b9050806001600160a01b0316836001600160a01b031603610cb05760405162461bcd60e51b815260206004820152602160248201527f4552433732313a20617070726f76616c20746f2063757272656e74206f776e6560448201527f72000000000000000000000000000000000000000000000000000000000000006064820152608401610675565b336001600160a01b0382161480610cea57506001600160a01b038116600090815260066020908152604080832033845290915290205460ff165b610d5c5760405162461bcd60e51b815260206004820152603d60248201527f4552433732313a20617070726f76652063616c6c6572206973206e6f7420746f60448201527f6b656e206f776e6572206f7220617070726f76656420666f7220616c6c0000006064820152608401610675565b6104c78383610fb2565b610d70338261102d565b610de25760405162461bcd60e51b815260206004820152602d60248201527f4552433732313a2063616c6c6572206973206e6f7420746f6b656e206f776e6560448201527f72206f7220617070726f766564000000000000000000000000000000000000006064820152608401610675565b6104c78383836110ac565b6103f68282604051806020016040528060008152506112b2565b6104c78383836040518060200160405280600081525061074f565b600080546001600160a01b0383811673ffffffffffffffffffffffffffffffffffffffff19831681178455604051919092169283917f8be0079c531659141344cd1fd0a4f28419497f9722a3daafe3b4186f6b6457e09190a35050565b6103f633838361133b565b610e94338361102d565b610f065760405162461bcd60e51b815260206004820152602d60248201527f4552433732313a2063616c6c6572206973206e6f7420746f6b656e206f776e6560448201527f72206f7220617070726f766564000000000000000000000000000000000000006064820152608401610675565b6104f184848484611409565b60606000610f1f83611492565b600101905060008167ffffffffffffffff811115610f3f57610f3f611a53565b6040519080825280601f01601f191660200182016040528015610f69576020820181803683370190505b5090508181016020015b600019017f3031323334353637383961626364656600000000000000000000000000000000600a86061a8153600a8504945084610f7357509392505050565b6000818152600560205260409020805473ffffffffffffffffffffffffffffffffffffffff19166001600160a01b0384169081179091558190610ff482610614565b6001600160a01b03167f8c5be1e5ebec7d5bd14f71427d1e84f3dd0314c0f7b2291e5b200ac8c7c3b92560405160405180910390a45050565b60008061103983610614565b9050806001600160a01b0316846001600160a01b0316148061108057506001600160a01b0380821660009081526006602090815260408083209388168352929052205460ff165b806110a45750836001600160a01b03166110998461048c565b6001600160a01b0316145b949350505050565b826001600160a01b03166110bf82610614565b6001600160a01b0316146111235760405162461bcd60e51b815260206004820152602560248201527f4552433732313a207472616e736665722066726f6d20696e636f72726563742060448201526437bbb732b960d91b6064820152608401610675565b6001600160a01b03821661119e5760405162461bcd60e51b8152602060048201526024808201527f4552433732313a207472616e7366657220746f20746865207a65726f2061646460448201527f72657373000000000000000000000000000000000000000000000000000000006064820152608401610675565b826001600160a01b03166111b182610614565b6001600160a01b0316146112155760405162461bcd60e51b815260206004820152602560248201527f4552433732313a207472616e736665722066726f6d20696e636f72726563742060448201526437bbb732b960d91b6064820152608401610675565b6000818152600560209081526040808320805473ffffffffffffffffffffffffffffffffffffffff199081169091556001600160a01b0387811680865260048552838620805460001901905590871680865283862080546001019055868652600390945282852080549092168417909155905184937fddf252ad1be2c89b69c2b068fc378daa952ba7f163c4a11628f55a4df523b3ef91a4505050565b6112bc8383611574565b6112c9600084848461170c565b6104c75760405162461bcd60e51b815260206004820152603260248201527f4552433732313a207472616e7366657220746f206e6f6e20455243373231526560448201527f63656976657220696d706c656d656e74657200000000000000000000000000006064820152608401610675565b816001600160a01b0316836001600160a01b03160361139c5760405162461bcd60e51b815260206004820152601960248201527f4552433732313a20617070726f766520746f2063616c6c6572000000000000006044820152606401610675565b6001600160a01b03838116600081815260066020908152604080832094871680845294825291829020805460ff191686151590811790915591519182527f17307eab39ab6107e8899845ad3d59bd9653f200f220920489ca2b5937696c31910160405180910390a3505050565b6114148484846110ac565b6114208484848461170c565b6104f15760405162461bcd60e51b815260206004820152603260248201527f4552433732313a207472616e7366657220746f206e6f6e20455243373231526560448201527f63656976657220696d706c656d656e74657200000000000000000000000000006064820152608401610675565b6000807a184f03e93ff9f4daa797ed6e38ed64bf6a1f01000000000000000083106114db577a184f03e93ff9f4daa797ed6e38ed64bf6a1f010000000000000000830492506040015b6d04ee2d6d415b85acef81000000008310611507576d04ee2d6d415b85acef8100000000830492506020015b662386f26fc10000831061152557662386f26fc10000830492506010015b6305f5e100831061153d576305f5e100830492506008015b612710831061155157612710830492506004015b60648310611563576064830492506002015b600a83106103de5760010192915050565b6001600160a01b0382166115ca5760405162461bcd60e51b815260206004820181905260248201527f4552433732313a206d696e7420746f20746865207a65726f20616464726573736044820152606401610675565b6000818152600360205260409020546001600160a01b03161561162f5760405162461bcd60e51b815260206004820152601c60248201527f4552433732313a20746f6b656e20616c7265616479206d696e746564000000006044820152606401610675565b6000818152600360205260409020546001600160a01b0316156116945760405162461bcd60e51b815260206004820152601c60248201527f4552433732313a20746f6b656e20616c7265616479206d696e746564000000006044820152606401610675565b6001600160a01b0382166000818152600460209081526040808320805460010190558483526003909152808220805473ffffffffffffffffffffffffffffffffffffffff19168417905551839291907fddf252ad1be2c89b69c2b068fc378daa952ba7f163c4a11628f55a4df523b3ef908290a45050565b60006001600160a01b0384163b1561185857604051630a85bd0160e11b81526001600160a01b0385169063150b7a0290611750903390899088908890600401611c66565b6020604051808303816000875af192505050801561178b575060408051601f3d908101601f1916820190925261178891810190611ca2565b60015b61183e573d8080156117b9576040519150601f19603f3d011682016040523d82523d6000602084013e6117be565b606091505b5080516000036118365760405162461bcd60e51b815260206004820152603260248201527f4552433732313a207472616e7366657220746f206e6f6e20455243373231526560448201527f63656976657220696d706c656d656e74657200000000000000000000000000006064820152608401610675565b805181602001fd5b6001600160e01b031916630a85bd0160e11b1490506110a4565b506001949350505050565b6001600160e01b03198116811461087d57600080fd5b60006020828403121561188b57600080fd5b81356107e981611863565b80356001600160a01b03811681146118ad57600080fd5b919050565b600080604083850312156118c557600080fd5b6118ce83611896565b915060208301356bffffffffffffffffffffffff811681146118ef57600080fd5b809150509250929050565b60005b838110156119155781810151838201526020016118fd565b50506000910152565b600081518084526119368160208601602086016118fa565b601f01601f19169290920160200192915050565b6020815260006107e9602083018461191e565b60006020828403121561196f57600080fd5b5035919050565b6000806040838503121561198957600080fd5b61199283611896565b946020939093013593505050565b6000806000606084860312156119b557600080fd5b6119be84611896565b92506119cc60208501611896565b9150604084013590509250925092565b600080604083850312156119ef57600080fd5b50508035926020909101359150565b600060208284031215611a1057600080fd5b6107e982611896565b801515811461087d57600080fd5b60008060408385031215611a3a57600080fd5b611a4383611896565b915060208301356118ef81611a19565b634e487b7160e01b600052604160045260246000fd5b60008060008060808587031215611a7f57600080fd5b611a8885611896565b9350611a9660208601611896565b925060408501359150606085013567ffffffffffffffff80821115611aba57600080fd5b818701915087601f830112611ace57600080fd5b813581811115611ae057611ae0611a53565b604051601f8201601f19908116603f01168101908382118183101715611b0857611b08611a53565b816040528281528a6020848701011115611b2157600080fd5b82602086016020830137600060208483010152809550505050505092959194509250565b60008060408385031215611b5857600080fd5b611b6183611896565b9150611b6f60208401611896565b90509250929050565b600181811c90821680611b8c57607f821691505b602082108103611bac57634e487b7160e01b600052602260045260246000fd5b50919050565b634e487b7160e01b600052601160045260246000fd5b80820281158282048414176103de576103de611bb2565b600082611bfc57634e487b7160e01b600052601260045260246000fd5b500490565b600060018201611c1357611c13611bb2565b5060010190565b60008351611c2c8184602088016118fa565b835190830190611c408183602088016118fa565b01949350505050565b600060208284031215611c5b57600080fd5b81516107e981611a19565b60006001600160a01b03808716835280861660208401525083604083015260806060830152611c98608083018461191e565b9695505050505050565b600060208284031215611cb457600080fd5b81516107e98161186356fea164736f6c6343000811000a",
  "linkReferences": {},
  "deployedLinkReferences": {}
}